:020000040800F2
:1000000000000220391F0008811F0008811F00081E
:10001000811F0008811F0008811F000800000000E8
:10002000000000000000000000000000811F000828
:10003000811F000800000000811F0008811F0008C8
:10004000811F0008811F0008811F0008811F000810
:10005000811F0008811F0008811F0008811F000800
:10006000811F0008811F0008811F0008811F0008F0
:10007000811F0008811F0008811F0008811F0008E0
:10008000811F0008811F0008811F0008811F0008D0
:10009000811F0008811F0008811F0008811F0008C0
:1000A000811F0008811F0008811F0008811F0008B0
:1000B000811F0008811F0008811F0008811F0008A0
:1000C000811F0008811F0008811F0008811F000890
:1000D000811F0008811F00080D050008A50B0008FE
:1000E000811F0008811F0008811F0008811F000870
:1000F000811F0008811F0008811F0008811F000860
:10010000811F0008811F0008811F0008811F00084F
:10011000811F0008811F0008811F0008811F00083F
:10012000811F0008811F0008811F0008811F00082F
:10013000811F0008811F0008811F0008811F00081F
:10014000811F0008811F0008811F0008811F00080F
:10015000811F0008811F0008811F0008811F0008FF
:10016000811F0008811F0008811F0008811F0008EF
:10017000811F0008811F0008811F0008811F0008DF
:08018000811F0008811F000827
:1001880010B5054C237833B9044B13B10448AFF3C9
:1001980000800123237010BDCC0400200000000063
:1001A8008824000808B5034B1BB103490348AFF383
:1001B800008008BD00000000D0040020882400084A
:1001C800154B002B08BF134B9D46A3F5803A002121
:1001D8008B460F461348144A121A01F003FF0F4BBF
:1001E800002B00D098470E4B002B00D098470020DA
:1001F800002104000D000D48002802D00C4801F031
:10020800B9FF01F0CBFE2000290001F047FE01F004
:10021800B5FE00BF0000080000000000000000005C
:1002280000000000CC040020D40D00207D2100082F
:1002380089210008114A124B116B41F0010110B4D9
:100248001163116C0F4C41F4003111641A6842F0CB
:10025800A0021A601A6A42F4EE421A629A6842F0E0
:1002680020029A609A6880B242F0800242F2080145
:100278009A602081A1815DF8044B704700380240E4
:100288000000024000440040034A13889B06FCD546
:100298009088C0B2704700BF00440040084A09492E
:1002A800938923F400531B041B0C4020938148605E
:1002B800938943F4005343F024039381704700BFAC
:1002C8000044004000E100E0064B074A98890749CE
:1002D800024040209A81C1F884009A8942F4005271
:1002E8009A81704700440040DFDFFFFF00E100E033
:1002F800034A13885B06FCD580B29080704700BF24
:10030800004400400C4A30B4441E0D2500F2FF3072
:1003180014F8011F49B113885B06FCD589B2918096
:1003280023780A2B03D08442F2D130BC704713885B
:100338005B06FCD59580F6E7004400400FB42DE934
:10034800F0498DB014AB53F8046B0193327862B363
:1003580000246A4D6A4F234631464FF00D08252A7E
:1003680014D133445A78CAB1623A162A00F29980F5
:10037800DFE802F07F75649742979797979797976A
:100388009797979797399797979726002B885806A6
:10039800FCD592B2AA800B780A2B0BD00134A4B2F8
:1003A8002346325D3119002AD9D10DB0BDE8F04994
:1003B80004B070472B885B06FCD5A5F80480EDE7F0
:1003C8009B78019A622B02F1040112686FD0682BA6
:1003D80000F08680772B04BF0134A4B2CDE9002158
:1003E8004FF4006055E0019B1A1D18680192FFF751
:1003F80089FF0134A4B2D1E7019B073323F0070337
:10040800D3E900BC083307EACC02BBF1000F42EA8B
:100418005B7201934FF000007CF100030CF0804107
:10042800B8BF42F0004250EA010300923CD0009B62
:1004380043F0804300934FF480702AE09B78019A40
:10044800622B02F1040112683ED0682B4FD0772B43
:1004580004BF0134A4B2CDE90021202019E0019B9A
:10046800191D1A7801912B885B06FCD593B2AB80D5
:10047800BFE79B78019A622B02F1040112681DD034
:10048800682B27D0772BCDE9002104BF0134A4B213
:10049800042002AA694600F009FC02A8FFF732FF0F
:1004A800A7E700230093A4E74FF48070F1E7013435
:1004B800A4B2CDE900214FF40070EAE70134A4B2F8
:1004C800CDE900210120E4E70134A4B2CDE90021FF
:1004D8000820DEE70134A4B2CDE900210220D8E7E4
:1004E8000134A4B2CDE900214FF48060D1E7013492
:1004F800A4B2CDE900211020CBE700BF00440040A2
:10050800F8FFFF3F0B4A138813F0200F0A4B09D05E
:1005180091881A88094892B2C9B281541A8801325E
:1005280092B21A801A88B2F5007F24BF00221A807E
:10053800704700BF00440040E8040020B0090020D4
:100548002DE9F0498FB016AC009354F8046B1346AC
:100558000A4601466D48FFF7F1FE3278039462B30C
:1005680000246B4D6B4F234631464FF00D08252A6A
:1005780014D133445A78CAB1623A162A00F29A80E2
:10058800DFE802F08076659843989898989898984C
:1005980098989898983A9898989827002B88580689
:1005A800FCD592B2AA800B780A2B0CD00134A4B2E5
:1005B8002346325D3119002AD9D15748FFF7BEFECC
:1005C8000FB0BDE8F0892B885B06FCD5A5F8048040
:1005D800ECE79B78039A622B02F1040112686FD052
:1005E800682B00F08680772B04BF0134A4B2CDE9D4
:1005F80002214FF4006055E0039B1A1D186803920E
:10060800FFF780FE0134A4B2D0E7039B073323F041
:100618000703D3E900BC083307EACC02BBF1000F9B
:1006280042EA5B7203934FF000007CF100030CF088
:100638008041B8BF42F0004250EA010302923CD028
:10064800029B43F0804302934FF480702AE09B782A
:10065800039A622B02F1040112683ED0682B4FD036
:10066800772B04BF0134A4B2CDE90221202019E080
:10067800039B191D1A7803912B885B06FCD593B24E
:10068800AB80BFE79B78039A622B02F104011268E2
:100698001DD0682B27D0772BCDE9022104BF013468
:1006A800A4B2042004AA02A900F000FB04A8FFF7E2
:1006B80029FEA7E700230293A4E74FF48070F1E72F
:1006C8000134A4B2CDE902214FF40070EAE7013405
:1006D800A4B2CDE902210120E4E70134A4B2CDE9B6
:1006E80002210820DEE70134A4B2CDE9022102206C
:1006F800D8E70134A4B2CDE902214FF48060D1E7F4
:100708000134A4B2CDE902211020CBE7A8220008C9
:1007180000440040F8FFFF3FBC22000870B5AE4C13
:10072800628823889BB2934282B009D06388AB4920
:100738009BB25A1C92B26280CB5C1B2B00F0C28029
:10074800A74D2379002B00F0E1802379012B00F0DD
:10075800E5802379022B00F0DD802379032B00F05C
:10076800E1802379042B0CBF2320242000F092FD84
:100778009C4E009600231A463E210A20FFF7E0FE11
:1007880000231A463C210F200096FFF7D9FE0023CC
:100798001A46242115200096FFF7D2FE00231A4698
:1007A80000965B211520FFF7CBFE2B78013B032B2E
:1007B8002FD8DFE803F05C773602227905EB820256
:1007C8000023526900923E211A460A20FFF7B8FE1C
:1007D800627905EB82020023D26A00923C211A4614
:1007E8000F20FFF7ADFEA27905EB82020023126C01
:1007F800009224211A461520FFF7A2FEE37905EBA3
:10080800830529232A6D00925B2100221520FFF71A
:1008180097FE6388B3F5007F24BF0023638002B08E
:1008280070BD227905EB82020023526900923E21B5
:100838001A460A20FFF784FE627905EB820200233C
:10084800D26A00923C211A460F20FFF779FEA2795E
:10085800292305EB8202126C009224210022152024
:10086800FFF76EFEE37905EB83050023CAE72279DB
:1008780005EB82022923526900923E2100220A20B8
:10088800FFF75EFE6279002305EB8202D26A0092CE
:100898003C2100220F20FFF753FEA279002305EB2D
:1008A8008202D8E7227905EB82020023526900927E
:1008B8003E211A460A20FFF743FE6279292305EBF9
:1008C8008202E3E763889BB25A1C92B26280CB5CD7
:1008D8005B2B7FF435AF63889BB2CB5C412B44D054
:1008E80063889BB2CB5C422B20D063889BB2CB5CE5
:1008F800432B57D063883A4D9BB2CB5C442B00F016
:100908009380638801339BB263801AE71F2000F04D
:10091800C1FC2DE7222000F0BDFC29E7202000F0D3
:10092800B9FC25E7212000F0B5FC21E72C4D2B78F8
:10093800012B00F0A5802B78022B00F08F802B78FC
:10094800032B7AD02B78042BDBD16B7CDBB2012B09
:10095800D7D1E279013AD2B2E2712B74E37903F08C
:10096800FF02002BCDD16A74CBE71D4D2B78012BEC
:100978004AD02B78022B37D02B78032B1BD02B781F
:10098800042BBED12B7CDBB2012BBAD1E279013228
:10099800D2B2E2716B74E279AB7C9A42B1D1002396
:1009A8002B74AEE70E4D2B78042BAAD02B7801338D
:1009B800DBB22B70A5E72B7BDBB2012BDFD1A27951
:1009C8000132D2B2A2716B73A279AB7B9A4204BF97
:1009D80000232B73D3E700BFE8040020B0090020F0
:1009E80004000020C82200082B7ADBB2012BC3D1F7
:1009F80062790132D2B262716B726279AB7A9A42D1
:100A080004BF00232B72B7E72B79DBB2012BB0D1DF
:100A180022790132D2B222716B712279AB799A4272
:100A280004BF00232B71A4E72B78012B3FF469AF97
:100A38002B78013BDBB22B7063E76B7BDBB2012BBE
:100A480080D1A279013AD2B2A2712B73A37903F0B3
:100A5800FF02002B7FF476AF6A7373E76B7ADBB221
:100A6800012B7FF46CAF6279013AD2B262712B72BA
:100A7800637903F0FF02002B7FF461AF6A725EE7CF
:100A88006B79DBB2012B7FF456AF2279013AD2B2EF
:100A980022712B71237903F0FF02002B7FF44BAFF7
:100AA8006A7148E71149124A124B30B40C6B124D67
:100AB80044F008040C630C6C44F480240C64116842
:100AC80041F420211160516A41F0770151629A681E
:100AD80042F020029A609A6880B242F0800242F2A4
:100AE8000C019A602881A98130BC70470038024007
:100AF800000C02400000024000480040034A1388EE
:100B08005B06FCD580B29080704700BF004800406B
:100B18000C4B9A8942F4005242F004029A811A88D6
:100B28009206FCD598881A8822F020021204120C2A
:100B38001A809A8922F004021204120CC0B29A8117
:100B4800704700BF00480040084A0949938923F4C8
:100B580000531B041B0C802093814860938943F445
:100B6800005343F024039381704700BF00480040BE
:100B780000E100E0064B074A9889074902404020F7
:100B88009A81C1F884009A8942F400529A81704788
:100B980000480040DFDFFFFF00E100E00D4A138856
:100BA8009B0616D50C4B91881A890C4892B2C9B28B
:100BB80081541A89013292B21A811A89B2F5007FDA
:100BC80024BF00221A815A89B2F5007F24BF00226F
:100BD8005A81704700480040E8040020B00B00200C
:100BE800074B59891A8992B28A4206D001221A7390
:100BF8005A89013292B25A81704700221A7370479B
:100C0800E8040020F0B40D4A0D4F00F10A05302623
:100C1800914205F8016D08D3312400E01C46891A79
:100C2800631C9142DBB2F9D22C70A7FB0232A842B6
:100C38004FEAD202ECD1F0BC704700BF00CA9A3B21
:100C4800CDCCCCCC70B400F10A06002416F8013DD6
:100C5800302BE5B21FD00C8813550B886C1C013360
:100C6800E4B29BB20A2C0B8011D0C5F10805061B13
:100C7800EDB2751BC4F109040835044414F80109E0
:100C8800D0540B8801339BB2A5420B80F6D10021CA
:100C9800D15470BC7047092C01D00134D6E70888BC
:100CA80013540B8801339BB20B80F0E72DE9F04F0A
:100CB80087B00023102817461370ADF80A3000F0EB
:100CC8004A8120D9B0F5007F4BD07AD9B0F5806F32
:100CD80061D0B0F5006F13D10B6802F108041B0F47
:100CE800092BD8B200F130038ABF37301370107067
:100CF8000B6801321B0194420B60F0D100233B7258
:100D080007B0BDE8F08F022800F00E8117D904283B
:100D180040F01E810B6802F1200030243125002BA1
:100D2800B4BF157014700B6801325B0090420B6001
:100D3800F5D1002387F8203007B0BDE8F08F0128EF
:100D4800DED10B6802F10800302531241E064CBFA5
:100D5800147015700B6801325B0090420B60F5D17E
:100D6800CCE70B68C3F30313092B8CBF373330333D
:100D780013700B681A0103F00F03092B94BF30336B
:100D880037330A607B700B6800221B010B60BA7056
:100D980007B0BDE8F08F0B68141DC3F30333092BAC
:100DA80003F130008ABF3733107013700B680132BB
:100DB8001B01A2420B60F0D100233B7107B0BDE8D4
:100DC800F08F202800F0C780B0F5807F98D191ED92
:100DD800007AB5EEC07AF1EE10FA06D52D2201237D
:100DE800B1EE477A3A70ADF80A30F7EE007AB4EE11
:100DF800E77AF1EE10FA00F1D68040F3EA80002499
:100E0800B2EE046A00E01C4667EE867A631CB4EE14
:100E1800E77AF1EE10FA9BB2F5DCC7EE866A4FF07E
:100E2800200B0DF116086E48DFF8BCC143460DF1E2
:100E38000C093026C7EE267A9FED6A7AFCEEE76A3F
:100E480016EE901AF8EE666A77EEE67A67EE877A1B
:100E5800FCEEE77A17EE905A884203F8016D06D83F
:100E68003022091A01328142D2B2FAD21A70ACFB8E
:100E7800002099454FEAD000EED10DF10A0A5146FB
:100E88003A4648460193FFF7DDFE5549DFF858E139
:100E9800019B46464FF0300CA94206F801CD08D810
:100EA800312000E010466D1A421C8D42D2B2F9D2B0
:100EB8003070AEFB01219E424FEAD101ECD12E23C6
:100EC8003A46514648468DF80F30FFF7BBFEBDF84D
:100ED8000A20531C65219BB2BBF12D0FB954ADF804
:100EE8000A3004D1023207F803B0ADF80A203C4AB0
:100EF8003D483021A24208F8011D07D83023A41A22
:100F080001339442DBB2FAD288F80030A0FB0232F7
:100F180046454FEAD202EDD13A4651464846FFF7D8
:100F280091FE07B0BDE8F08F0B6802F11000302584
:100F380031241B044CBF147015700B6801325B0020
:100F480090420B60F5D100233B7407B0BDE8F08FE9
:100F580008287FF4D5AE0A68002A07DA2D233B70EB
:100F68000A68012352420A60ADF80A301C491E4E35
:100F78000DF10C090DF116043025914204F8015DBC
:100F880008D8312000E01846521A431C8A42DBB2C6
:100F9800F9D22070A6FB0131A1454FEAD101ECD16D
:100FA8000DF10A0AB8E7DFED116AB4EEE67AF1EE60
:100FB80010FA13D5F0EE667A012466EEA76A0134BA
:100FC800B4EEE67AF1EE10FAA4B2F6D44FF02D0B97
:100FD80027E74FF6FF74DFED056A20E70124F5E700
:100FE80000CA9A3B00007A44CDCCCCCCCDCCCC3DC9
:100FF8001749184A0B6C43F0400330B40B6453256F
:1010080084234FF47A741585D4621380938A43F04D
:1010180001039382138843F00103138050B1138AAC
:10102800DB07FCD5138A23F001031B041B0C0138D2
:101038001382F4D10749064A0B8823F001031B04E5
:101048001B0C0B80136C23F04003136430BC7047F7
:1010580000380240001800401749184A0B6C43F04A
:10106800400330B40B640025842354241585D462CE
:101078001380938A43F001039382138843F001039A
:10108800138050B1138ADB07FCD5138A23F00103C0
:101098001B041B0C01381382F4D10849064A0B883B
:1010A80023F001031B041B0C0B80136C23F040037B
:1010B800136430BC704700BF00380240001800407D
:1010C80009490A4B0A6C30B442F008020A645325F5
:1010D8004FF0FF34002284201D85DC62188030BC6C
:1010E8009A805A62704700BF00380240000C0040E6
:1010F800044B9A8A42F001029A821A8842F001024D
:101108001A807047000C0040044A506A138823F084
:1011180001031B041B0C1380704700BF000C004028
:101128000D490A6C4FF0804342F0010230B484202C
:101138000A64532500224FF0FF341D85DC621880B5
:101148009A805A629A8A42F001029A821A8842F078
:1011580001021A8030BC7047003802404FF08043CB
:10116800586A70474FF080435B6A834205D308444E
:10117800984294BF002001207047C0431844884219
:101188002CBF00200120704708B50448FFF7D6F8A7
:101198000348BDE80840FFF7D1B800BF4423000862
:1011A8005423000830B5364D83B00524002221466B
:1011B8000134009510462323E4B2FFF7C1F96B2CE4
:1011C800F4D1304C00942323002205210220FFF79C
:1011D800B7F90094232300226A210220FFF7B0F90F
:1011E80000942323002205210320FFF7A9F9009486
:1011F800232300226A210320FFF7A2F90094232366
:10120800002205210420FFF79BF9009423230022E4
:101218006A210420FFF794F9052108460094232346
:101228000022FFF78DF90094232300226A2105206C
:10123800FFF786F9144B0093002223232121032072
:10124800FFF77EF9114B009300222323212104206C
:10125800FFF776F90E4B0093002223234A2104203E
:10126800FFF76EF905242146013400952323002257
:101278000620E4B2FFF764F96B2CF4D103B030BD5B
:101288005C230008602300086423000894230008F6
:10129800A023000870B5284E82B0054605242146D3
:1012A800013400962B4600220820E4B2FFF748F9E3
:1012B8006B2CF4D1214C00942B46002205210920E7
:1012C800FFF73EF900942B4600226A210920FFF718
:1012D80037F900942B46002205210A20FFF730F940
:1012E80000942B4600226A210A20FFF729F900946E
:1012F8002B46002205210B20FFF722F900942B46EC
:1013080000226A210B20FFF71BF90D4B00930022E6
:101318002B4632210A20FFF713F905242146013410
:1013280000962B4600220C20E4B2FFF709F96B2C3B
:10133800F4D102B070BD00BF5C2300086023000830
:10134800A823000830B5274D83B005240023214683
:10135800013400951A460D20E4B2FFF7F1F86B2C22
:10136800F4D1214C009400231A4605210E20FFF7E2
:10137800E7F800231A4600946A210E20FFF7E0F8E8
:1013880000231A46009405210F20FFF7D9F80023FF
:101398001A4600946A210F20FFF7D2F800231A4654
:1013A800009405211020FFF7CBF800231A4600947B
:1013B8006A211020FFF7C4F80C4B009300231A464B
:1013C80035210F20FFF7BCF80524002321460134FE
:1013D80000951A461120E4B2FFF7B2F86B2CF4D14D
:1013E80003B030BD5C23000860230008B823000860
:1013F80030B5364D83B005240023214601340095CD
:101408001A461320E4B2FFF79BF86B2CF4D1304C4A
:10141800009400231A4605211420FFF791F80023B1
:101428001A4600943C211420FFF78AF800231A4634
:1014380000946A211420FFF783F800231A460094C9
:1014480005211520FFF77CF800231A4600943C215B
:101458001520FFF775F800231A4600946A21152015
:10146800FFF76EF800231A46009405211620FFF7AF
:1014780067F800231A4600943C211620FFF760F80D
:1014880000231A4600946A211620FFF759F8114BD9
:10149800009300231A4617211520FFF751F80E4B29
:1014A800009300231A464B211520FFF749F805241D
:1014B80000232146013400951A461720E4B2FFF7AD
:1014C8003FF86B2CF4D103B030BD00BF5C2300089B
:1014D80060230008C0230008D023000830B52F4D32
:1014E80083B005242146013400951F2300221920CA
:1014F800E4B2FFF725F8232CF4D11F23002205219D
:101508001A200095FFF71CF81F23002222211A2019
:101518000095FFF715F81F23002205211B200095D1
:10152800FFF70EF81F23002222211B200095FFF74A
:1015380007F81F23002205211C200095FFF700F85B
:101548001F23002222211C200095FEF7F9FF144BCF
:1015580000930022222307211A20FEF7F1FF114BE6
:1015680000930022222310211B20FEF7E9FF0E4BD7
:1015780000930022222310211C20FEF7E1FF0524FE
:101588002146013400951F2300221D20E4B2FEF7F6
:10159800D7FF232CF4D103B030BD00BFE0230008EF
:1015A800E4230008F02300080424000808B50948CB
:1015B800FEF7C4FE0848FEF7C1FEFFF7F3FD1F2043
:1015C800FFF768FEFFF7BEFEFFF712FFBDE8084011
:1015D800FFF784BF4423000854230008F0B599B0EE
:1015E8005C220446002101A800F0FCFC01AE6B4619
:1015F80017AA43F8044F9342FBD1DFF868E00024B0
:10160800222701254FF0470C7246172306E0013BBD
:10161800591CA2F800C002F102020CD0132C05FAE2
:1016280003F102DC30680142F1D1013B591C1780FB
:1016380002F10202F2D10134172C06F104060EF170
:10164800300EE1D1064B222103F1640223F8021F78
:101658009342FBD10A2019B0BDE8F040FFF7C8BC9F
:1016680046090020F80400202DE9F04198B05C22DA
:101678000446002101A800F0B5FC01AF6B4617AA8B
:1016880043F8044F9342FBD1DFF874E06FF0100485
:1016980000214FF0010C22204FF047087246172313
:1016A80007E0022C07D9013B5D1C108002F1020201
:1016B8000DD00329F5DC3D680CFA03F62E42F2D072
:1016C800013B5D1CA2F8008002F10202F1D1013158
:1016D800172907F1040704F101040EF1300EDDD1DA
:1016E800064B222103F1640223F8021F9342FBD127
:1016F8000A2018B0BDE8F041FFF77ABC460900207F
:10170800F80400202DE9F04198B05C22044600213D
:1017180001A800F067FC6B4617AA43F8044F9342F0
:10172800FBD11A4C4FF0FF3122204FF0010E4FF041
:10173800470C01AB03EB810617222346A1F10A05EA
:10174800012918D81880013A571C03F10203F7D170
:101758000131162904F13004EBD10D4B222103F19C
:10176800640223F8021F9342FBD10A2018B0BDE897
:10177800F041FFF73DBC012DE4D977680EFA02F875
:1017880018EA070FDED0A3F800C0DCE7F804002051
:10179800460900202DE9F04198B05C22044600215A
:1017A80001A800F01FFC6B4617AA43F8044F9342A8
:1017B800FBD11A4C4FF0FF3122204FF0010E4FF0B1
:1017C800470C01AB03EB810617222346A1F1110553
:1017D800012918D81880013A571C03F10203F7D1E0
:1017E8000131162904F13004EBD10D4B222103F10C
:1017F800640223F8021F9342FBD10A2018B0BDE807
:10180800F041FFF7F5BB012DE4D977680EFA02F82D
:1018180018EA070FDED0A3F800C0DCE7F8040020C0
:10182800460900202DE9F04198B05C2204460021C9
:1018380001A800F0D7FB6B4617AA43F8044F934260
:10184800FBD11A4C6FF0030122204FF0010E4FF02C
:10185800470C01AB03EB810617222346A1F10A05C9
:10186800022918D81880013A571C03F10203F7D14E
:101878000131132904F13004EBD10D4B222103F17E
:10188800640223F8021F9342FBD10A2018B0BDE876
:10189800F041FFF7ADBB052DE4D937690EFA02F820
:1018A80018EA070FDED0A3F800C0DCE7F804002030
:1018B8004609002038B54FF400112248224CFEF7A3
:1018C8003DFD224A2248138843F001031380938A7E
:1018D80023F001031B041B0C9382236843F00103CC
:1018E80023606168FEF72AFD63683BB1194D6168A2
:1018F8002846FEF723FD6368002BF8D1124C1648E2
:101908006168FEF71BFD114A14491388144823F037
:1019180001031B041B0C002513809563CB6843F45B
:101928000013CB60236823F001032360938A40F2FD
:101938005A2143F00103938261606168BDE8384031
:10194800FEF7FCBC14240008A06002400008004018
:101958001C240008342400084824000800600240C1
:10196800602400082DE9F04198B05C22044600216B
:1019780001A800F037FB6B4617AA43F8044F9342BF
:10198800FBD11B4C6FF0070122204FF0010E4FF0E6
:10199800470C01AB03EB810617222346A1F10A0588
:1019A80001291AD81880013A571C03F10203F7D10C
:1019B80001310F2904F13004EBD10E4B222103F140
:1019C800640223F8021F9342FBD10A20FFF710FBA1
:1019D80018B0BDE8F041FFF76DBF012DE2D9376AB5
:1019E8000EFA02F818EA070FDCD0A3F800C0DAE70D
:1019F800F804002046090020F0B599B05C2204469E
:101A0800002101A800F0EEFA6B4617AA43F8044F2C
:101A18009342FBD1184C6FF0070122204FF0010CC4
:101A2800472601AB03EB81051722234601291AD863
:101A38001880013A571C03F10203F7D101310F292D
:101A480004F13004EDD10D4B222103F1640223F897
:101A5800021F9342FBD10A20FFF7CAFA19B0BDE86A
:101A6800F040FFF727BF2F6A0CFA02FE1EEA070FA5
:101A7800DED01E80DDE700BFF80400204609002004
:101A88002DE9F04198B001AE5C22044600213046B1
:101A980000F0A8FA6B4617AA43F8044F9342FBD10B
:101AA8001A4D6FF00D04002122204FF0010E4FF067
:101AB800470C2B461722022901DD082C1CD8188058
:101AC800013A571C03F10203F5D10131172904F13A
:101AD800010405F13005ECD10D4B222103F164021C
:101AE80023F8021F9342FBD10A20FFF781FA18B0AE
:101AF800BDE8F041FFF7DEBE56F821700EFA02F895
:101B080018EA070FDBD0A3F800C0D9E7F8040020D3
:101B180046090020F0B599B004465C22002101A8CE
:101B280000F060FAEC46674617AB47F8044F9F424F
:101B3800FBD1DFF854E00124222647255CF8040F86
:101B48007246172304FA03F1014203F1FF3314BF6D
:101B580015801680591C02F10202F3D1BC450EF122
:101B6800300EEBD1074B222103F1640223F8021F48
:101B78009342FBD10A20FFF73BFA19B0BDE8F040C9
:101B8800FFF798BE46090020F8040020F0B599B088
:101B98005C220446002101A800F024FA6B4617AA2B
:101BA80043F8044F9342FBD1184C6FF011012220E7
:101BB8004FF0010C472601AB03EB810517222346A2
:101BC80001291AD81880013A571C03F10203F7D1EA
:101BD8000131052904F13004EDD10D4B222103F127
:101BE800640223F8021F9342FBD10A20FFF700FA90
:101BF80019B0BDE8F040FFF75DBEAF6C0CFA02FE0D
:101C08001EEA070FDED01E80DDE700BFF8040020C3
:101C1800460900203B4A3C49106B3C4B40F0080009
:101C280030B4106308683A4D40F02A4008604868AC
:101C38004860486A40F0085040F408104862116C47
:101C480041F0040111640020692464211885DC62D4
:101C5800596356219863D9631C6499892D4C41F4C2
:101C680080719981198B41F068011983198B41F4AE
:101C7800D0411983998B41F068019983998B41F47C
:101C8800D0419983198C29401984198841F084011D
:101C98001980998A41F001019982198C41F488517F
:101CA80041F011011984136B43F4001313632246A6
:101CB8002060136813F00103FBD11749174D184C26
:101CC8000B6040F25A204B609560D46050601368F6
:101CD80043F080631360136843F440331360136860
:101CE80043F480631360136843F40063136013685C
:101CF80043F400531360136843F04003136030BC8F
:101D0800704700BF00380240000C02400008004045
:101D1800DDDDFFFFA060024000600240380800409F
:101D2800F8040020B824000800000020CC0400209B
:101D3800CC040020D40D0020384B39481A68002103
:101D480042F001021A6099601A6822F0847222F443
:101D580080321A6058601A6882B022F480221A60B1
:101D6800D960009101911A6842F480321A601A46CB
:101D780003E0009BB3F5A06F09D0136803F40033A8
:101D88000193009B01330093019B002BF1D0234B5F
:101D98001B6813F4003318BF01230193019B012B27
:101DA8000BD0204BD3F888204FF0006142F470022A
:101DB800C3F88820996002B07047184B1A491A6C0A
:101DC8001A4842F080521A640A6842F480420A6053
:101DD8009A689A609A6842F400429A609A6842F453
:101DE800A0529A6058601A6842F080721A601A68A5
:101DF8009201FCD50E49094A40F2056008609968CD
:101E080021F003019960996841F002019960936893
:101E180003F00C03082BFAD1C3E700BF00380240D7
:101E28001030002400ED00E0007000400854400726
:101E3800003C0240154A936803F00C03042B23D09E
:101E4800082B09D0124B114A12499268C2F30312A7
:101E58008A5CD3400B6170475068516852684302EE
:101E6800C2F3881201F03F014CBF0B4B084BB3FB88
:101E7800F1F303FB02F3054A5268C2F3014201324F
:101E88005200B3FBF2F3DEE7034BDCE70038024015
:101E98000024F4008400002000127A00F8B52D20F8
:101EA800FEF7C8F9FFF7B6FEFEF7F8F91E4A1F4F0E
:101EB800136B43F0010313633B6823F001033B609A
:101EC8004FF0FF33BA68BB607B687B603A690024D7
:101ED80002F0010206E04AB956B11646032C28BFA3
:101EE80000242A463D6915F00105F4D1012EF5D1EB
:101EF8003CB1012C0BD0022C0FD00134E4B20126E6
:101F0800ECE7FF20FFF76AFBFFF7D4FCF5E7FF20BB
:101F1800FFF7AAFBFFF7CEFCEFE7FF20FFF7F2FB86
:101F2800FFF7C8FCE9E700BF0038024000000240A4
:101F3800002103E00B4B5B58435004310A480B4B1C
:101F480042189A42F6D30A4A02E0002342F8043BB8
:101F5800084B9A42F9D3FFF7EFFE00F01FF8FFF79E
:101F68009DFF7047B824000800000020CC04002022
:101F7800CC040020D40D0020FEE7000008B50021A5
:101F8800044600F083F8044B1868C36B03B1984704
:101F9800204600F083FA00BF8424000870B50D4E77
:101FA8000D4D761BB61006D00024013455F8043BBD
:101FB8009847A642F9D1094E094D761B00F062FAFE
:101FC800B61006D00024013455F8043B9847A642C1
:101FD800F9D170BDAC240008AC240008B424000872
:101FE800AC240008F0B4860743D0541E002A3ED023
:101FF800CAB2034602E014F1FF3438D303F8012BC8
:102008009D07F8D1032C2BD9CDB245EA05250F2C15
:1020180045EA054516D9A4F110073F0903F1200642
:1020280006EB071603F1100242E9045542E902558E
:102038001032B242F8D104F00F040137032C03EB3D
:1020480007130DD91E462246043A032A46F8045BB4
:10205800FAD8221F22F003020432134404F00304C6
:102068002CB1C9B21C4403F8011B9C42FBD1F0BC43
:10207800704714460346C5E7024B13B1024800F007
:1020880079B8704700000000892100082DE9F04F59
:10209800354B85B00F460390186800F095F8334B20
:1020A8001B68019303F5A4730293B946019BD3F807
:1020B80048613EB3DDF808A04FF001087468651E5A
:1020C8000FD4013406EB84040027B9F1000F20D0A7
:1020D800D4F800314B451CD0013D6B1CA4F104041D
:1020E800F3D1234B73B1D6E90032002A34D1002B47
:1020F80032D03046CAF80030AFF30080DAF800601A
:10210800002EDBD1184B186805B0BDE8F04F00F081
:1021180063B873682268013BAB420CBF75602760E7
:10212800002AD9D0D6F88811D6F804B008FA05F3F1
:102138000B4208D1904773685B45B7D1DAF8003095
:10214800B342C9D0B2E7D6F88C01D4F88010034264
:1021580007D103989047EEE7B2461E46002EADD150
:10216800D0E708469047E6E7C80400208424000822
:1021780000000000002301461A46184600F02EB859
:1021880038B50A4C0A4D641BA4100AD004F18043E8
:10219800013B05EB8305013C55F804399847002CB1
:1021A800F9D1BDE8384000F073B900BFB824000881
:1021B800B4240008704700BF704700BF704700BFD5
:1021C800704700BF704700BF704700BF01207047CD
:1021D80001207047704700BF704700BF2DE9F843E2
:1021E8002B4D0646286898460F469146FFF7ECFFA8
:1021F800284B1C68D4F84831002B3DD05A681F2A58
:102208000DDC02F1010C16BB0232C3F804C02868C9
:1022180043F82270FFF7E0FF0020BDE8F8831E4B6B
:102228007BB34FF4C870AFF30080034648B3D4F8CB
:1022380048210021C0E900214FF0010CC4F84801F1
:102248000A46C0F88811C0F88C11002EDCD003EBC8
:1022580082010124C1F88890D3F888019440204372
:10226800022EC3F88801C1F80881CDD1D3F88C11AA
:102278000C43C3F88C41C7E704F5A673C4F848318A
:10228800BCE72868FFF7A8FF4FF0FF30C5E700BF9D
:10229800C80400208424000800000000FEE700BFF6
:1022A8001B5B25643B2564661B5B25646D1B5B25F6
:1022B800646D00001B5B34396D1B5B33396D0000A6
:1022C8002020202020202020202000004F464600EB
:1022D8004F4E0000434952434C45000055505F445F
:1022E8004F574E00424C494E4B000000534E414B55
:1022F8004500000054494D4552000000434F554EDB
:1023080054455200414E494D4154494F4E530000E7
:1023180052454400475245454E000000424C554541
:102328000000000059454C4C4F5700005055525082
:102338004C4500004359414E000000001B5B324AE7
:102348000D201B5B3F32356C000000001B5B3B48D7
:10235800000000002D0000007C0000004D696B7239
:102368006F70726F6365736F72736B6920736973D3
:1023780074656D6920752074656C656B6F6D756E1D
:10238800696B6163696A616D6100000050726F6A10
:10239800656B6174000000003230323200000000CA
:1023A80053455420434F4C4F52203A200000000020
:1023B8004D4F4445203A0000414E494D4154494F44
:1023C8004E53203A0000000054494D45522F434FC8
:1023D800554E544552203A002A00000041555448B1
:1023E8004F5253203A000000496E646972204B61D5
:1023F80072616265676F76696300000045726E619D
:1024080064204B6F76616365766963002564200AF2
:10241800000000004E445452206265666F726520C9
:102428004C4F4F503A202564200A00004E44545225
:1024380020696E204C4F4F503A202564200A000036
:102448004E445452206166746572204C4F4F503A86
:10245800202564200A0000004E445452206166740E
:102468006572207265696E696369616C697A617405
:10247800696F6E3A202564200A000000A000002041
:1024880000000000F8B500BFF8BC08BC9E467047C5
:0C249800F8B500BFF8BC08BC9E467047B9
:0824A40024DDFF7F01000000B0
:0824AC0081200008AD010008C9
:0424B4008901000892
:1024B8000000000001000000010005000100040008
:1024C8000100030001000100182300081C23000874
:1024D800242300082C230008342300083C23000888
:1024E800D4220008D8220008FC220008042300088F
:1024F8000C230008DC220008E4220008EC22000873
:10250800F4220008D4220008D8220008E703FD01BD
:10251800EB006D00320017000B0005000200000000
:102528000000020005000B00170032006D00EB00F0
:10253800FD01E703000000000000000001020304A1
:1025480006070809007A030AA0000020000000001E
:10255800000000008C030020F40300205C0400202D
:102568000000000000000000000000000000000063
:102578000000000000000000000000000000000053
:102588000000000000000000000000000000000043
:102598000000000000000000000000000000000033
:1025A8000000000000000000000000000000000023
:1025B8000000000000000000000000000000000013
:1025C8000000000000000000000000000000000003
:1025D80000000000000000000000000000000000F3
:1025E80000000000000000000000000000000000E3
:1025F80000000000000000000100000000000000D2
:102608000E33CDAB34126DE6ECDE05000B00000096
:1026180000000000000000000000000000000000B2
:1026280000000000000000000000000000000000A2
:102638000000000000000000000000000000000092
:102648000000000000000000000000000000000082
:0C2978000000000000000000B00D002076
:0400000508001F3997
:00000001FF
