:020000040800F2
:1000000000000220C1190008091A0008091A000896
:10001000091A0008091A0008091A0008000000005F
:10002000000000000000000000000000091A0008A5
:10003000091A000800000000091A0008091A00083F
:10004000091A0008091A0008091A0008091A000804
:10005000091A0008091A0008091A0008091A0008F4
:10006000091A0008091A0008091A0008091A0008E4
:10007000091A0008091A0008091A0008091A0008D4
:10008000091A0008091A0008091A0008091A0008C4
:10009000091A0008091A0008091A0008091A0008B4
:1000A000091A0008091A0008091A0008091A0008A4
:1000B000091A0008091A0008091A0008091A000894
:1000C000091A0008091A0008091A0008091A000884
:1000D000091A0008091A00080D050008850B000818
:1000E000091A0008091A0008091A0008091A000864
:1000F000091A0008091A0008091A0008091A000854
:10010000091A0008091A0008091A0008091A000843
:10011000091A0008091A0008091A0008091A000833
:10012000091A0008091A0008091A0008091A000823
:10013000091A0008091A0008091A0008091A000813
:10014000091A0008091A0008091A0008091A000803
:10015000091A0008091A0008091A0008091A0008F3
:10016000091A0008091A0008091A0008091A0008E3
:10017000091A0008091A0008091A0008091A0008D3
:08018000091A0008091A000821
:1001880010B5054C237833B9044B13B10448AFF3C9
:1001980000800123237010BDBC0400200000000073
:1001A800801E000808B5034B1BB103490348AFF391
:1001B800008008BD00000000C0040020801E000868
:1001C800154B002B08BF134B9D46A3F5803A002121
:1001D8008B460F461348144A121A01F047FC0F4B7E
:1001E800002B00D098470E4B002B00D098470020DA
:1001F800002104000D000D48002802D00C4801F031
:10020800FDFC01F00FFC2000290001F0BDFB01F00E
:10021800F9FB00BF0000080000000000000000001B
:1002280000000000BC04002078220020051C000803
:10023800111C0008114A124B116B41F0010110B456
:100248001163116C0F4C41F4003111641A6842F0CB
:10025800A0021A601A6A42F4EE421A629A6842F0E0
:1002680020029A609A6880B242F0800242F2080145
:100278009A602081A1815DF8044B704700380240E4
:100288000000024000440040034A13889B06FCD546
:100298009088C0B2704700BF00440040084A09492E
:1002A800938923F400531B041B0C4020938148605E
:1002B800938943F4005343F024039381704700BFAC
:1002C8000044004000E100E0064B074A98890749CE
:1002D800024040209A81C1F884009A8942F4005271
:1002E8009A81704700440040DFDFFFFF00E100E033
:1002F800034A13885B06FCD580B29080704700BF24
:10030800004400400C4A30B4441E0D2500F2FF3072
:1003180014F8011F49B113885B06FCD589B2918096
:1003280023780A2B03D08442F2D130BC704713885B
:100338005B06FCD59580F6E7004400400FB42DE934
:10034800F0498DB014AB53F8046B0193327862B363
:1003580000246A4D6A4F234631464FF00D08252A7E
:1003680014D133445A78CAB1623A162A00F29980F5
:10037800DFE802F07F75649742979797979797976A
:100388009797979797399797979726002B885806A6
:10039800FCD592B2AA800B780A2B0BD00134A4B2F8
:1003A8002346325D3119002AD9D10DB0BDE8F04994
:1003B80004B070472B885B06FCD5A5F80480EDE7F0
:1003C8009B78019A622B02F1040112686FD0682BA6
:1003D80000F08680772B04BF0134A4B2CDE9002158
:1003E8004FF4006055E0019B1A1D18680192FFF751
:1003F80089FF0134A4B2D1E7019B073323F0070337
:10040800D3E900BC083307EACC02BBF1000F42EA8B
:100418005B7201934FF000007CF100030CF0804107
:10042800B8BF42F0004250EA010300923CD0009B62
:1004380043F0804300934FF480702AE09B78019A40
:10044800622B02F1040112683ED0682B4FD0772B43
:1004580004BF0134A4B2CDE90021202019E0019B9A
:10046800191D1A7801912B885B06FCD593B2AB80D5
:10047800BFE79B78019A622B02F1040112681DD034
:10048800682B27D0772BCDE9002104BF0134A4B213
:10049800042002AA694600F0F9FB02A8FFF732FF20
:1004A800A7E700230093A4E74FF48070F1E7013435
:1004B800A4B2CDE900214FF40070EAE70134A4B2F8
:1004C800CDE900210120E4E70134A4B2CDE90021FF
:1004D8000820DEE70134A4B2CDE900210220D8E7E4
:1004E8000134A4B2CDE900214FF48060D1E7013492
:1004F800A4B2CDE900211020CBE700BF00440040A2
:10050800F8FFFF3F0B4A138813F0200F0A4B09D05E
:1005180091881A88094892B2C9B281541A8801325E
:1005280092B21A801A88B2F5007F24BF00221A807E
:10053800704700BF00440040D8140020541E00201B
:100548002DE9F0498FB016AC009354F8046B1346AC
:100558000A4601466D48FFF7F1FE3278039462B30C
:1005680000246B4D6B4F234631464FF00D08252A6A
:1005780014D133445A78CAB1623A162A00F29A80E2
:10058800DFE802F08076659843989898989898984C
:1005980098989898983A9898989827002B88580689
:1005A800FCD592B2AA800B780A2B0CD00134A4B2E5
:1005B8002346325D3119002AD9D15748FFF7BEFECC
:1005C8000FB0BDE8F0892B885B06FCD5A5F8048040
:1005D800ECE79B78039A622B02F1040112686FD052
:1005E800682B00F08680772B04BF0134A4B2CDE9D4
:1005F80002214FF4006055E0039B1A1D186803920E
:10060800FFF780FE0134A4B2D0E7039B073323F041
:100618000703D3E900BC083307EACC02BBF1000F9B
:1006280042EA5B7203934FF000007CF100030CF088
:100638008041B8BF42F0004250EA010302923CD028
:10064800029B43F0804302934FF480702AE09B782A
:10065800039A622B02F1040112683ED0682B4FD036
:10066800772B04BF0134A4B2CDE90221202019E080
:10067800039B191D1A7803912B885B06FCD593B24E
:10068800AB80BFE79B78039A622B02F104011268E2
:100698001DD0682B27D0772BCDE9022104BF013468
:1006A800A4B2042004AA02A900F0F0FA04A8FFF7F3
:1006B80029FEA7E700230293A4E74FF48070F1E72F
:1006C8000134A4B2CDE902214FF40070EAE7013405
:1006D800A4B2CDE902210120E4E70134A4B2CDE9B6
:1006E80002210820DEE70134A4B2CDE9022102206C
:1006F800D8E70134A4B2CDE902214FF48060D1E7F4
:100708000134A4B2CDE902211020CBE7301D000846
:1007180000440040F8FFFF3F441D000870B5A64C98
:10072800628823889BB2934282B009D06388A34928
:100738009BB25A1C92B26280CB5C1B2B00F0B78034
:100748009F4D2379002B00F0D6802379012B00F0F0
:10075800DA802379022B00F0D2809A4E009600238B
:100768001A463E210A20FFF7EBFE00231A463C21D9
:100778000F200096FFF7E4FE00231A4624211520D7
:100788000096FFF7DDFE00231A4600965B21152030
:10079800FFF7D6FE2B78013B032B2FD8DFE803F0B9
:1007A800775C3602227905EB8202002352690092B7
:1007B8003E211A460A20FFF7C3FE627905EB820242
:1007C8000023126A00923C211A460F20FFF7B8FE58
:1007D800A27905EB82020023526B009224211A466B
:1007E8001520FFF7ADFEE37905EB830529236A6C35
:1007F80000925B2100221520FFF7A2FE6388B3F563
:10080800007F24BF0023638002B070BD227905EB0E
:1008180082020023526900923E211A460A20FFF7FD
:100828008FFE627905EB82020023126A00923C2156
:100838001A460F20FFF784FEA279292305EB8202CE
:10084800526B0092242100221520FFF779FEE379EC
:1008580005EB83050023CAE7227905EB8202002312
:10086800526900923E211A460A20FFF769FE627912
:10087800292305EB8202126A00923C2100220F20F4
:10088800FFF75EFEA279002305EB8202D8E7227902
:1008980005EB82022923526900923E2100220A2098
:1008A800FFF74EFE6279002305EB8202E3E76388D7
:1008B8009BB25A1C92B26280CB5C5B2B7FF440AF38
:1008C80063889BB2CB5C412B40D063889BB2CB5CE6
:1008D800422B1CD063889BB2CB5C432B53D06388DC
:1008E800374D9BB2CB5C442B00F08E80638801337C
:1008F8009BB2638025E71F2000F0BCFC2DE7222077
:1009080000F0B8FC29E7202000F0B4FC25E72C4DC6
:100918002B78012B00F0A4802B78022B00F08E801E
:100928002B78032B79D02B78042BDFD16B7CDBB2AF
:10093800012BDBD1E279013AD2B2E2712B74E3796F
:1009480003F0FF02002BD1D16A74CFE71C4D2B783E
:10095800012B49D02B78022B36D02B78032B1BD0B8
:100968002B78042BC2D12B7CDBB2012BBED1E279D0
:100978000132D2B2E2716B74E279AB7C9A42B5D1A2
:1009880000232B74B2E70E4D2B78042BAED02B78B6
:100998000133DBB22B70A9E72B7BDBB2012BDFD154
:1009A800A2790132D2B2A2716B73A279AB7B9A425F
:1009B80004BF00232B73D3E7D8140020541E002053
:1009C80004000020501D00082B7ADBB2012BC4D193
:1009D80062790132D2B262716B726279AB7A9A42F1
:1009E80004BF00232B72B8E72B79DBB2012BB1D1FE
:1009F80022790132D2B222716B712279AB799A4293
:100A080004BF00232B71A5E72B78012B3FF46EAFB1
:100A18002B78013BDBB22B7068E76B7BDBB2012BD9
:100A280081D1A279013AD2B2A2712B73A37903F0D2
:100A3800FF02002B7FF477AF6A7374E76B7ADBB23F
:100A4800012B7FF46DAF6279013AD2B262712B72D9
:100A5800637903F0FF02002B7FF462AF6A725FE7ED
:100A68006B79DBB2012B7FF457AF2279013AD2B20E
:100A780022712B71237903F0FF02002B7FF44CAF16
:100A88006A7149E71149124A124B30B40C6B124D86
:100A980044F008040C630C6C44F480240C64116862
:100AA80041F420211160516A41F0770151629A683E
:100AB80042F020029A609A6880B242F0800242F2C4
:100AC8000C019A602881A98130BC70470038024027
:100AD800000C02400000024000480040034A13880E
:100AE8005B06FCD580B29080704700BF004800408C
:100AF8000C4B9A8942F4005242F004029A811A88F7
:100B08009206FCD598881A8822F020021204120C4A
:100B18001A809A8922F004021204120CC0B29A8137
:100B2800704700BF00480040084A0949938923F4E8
:100B380000531B041B0C802093814860938943F465
:100B4800005343F024039381704700BF00480040DE
:100B580000E100E0064B074A988907490240402017
:100B68009A81C1F884009A8942F400529A817047A8
:100B780000480040DFDFFFFF00E100E00D4A138876
:100B88009B0616D50C4B91881A890C4892B2C9B2AB
:100B980081541A89013292B21A811A89B2F5007FFA
:100BA80024BF00221A815A89B2F5007F24BF00228F
:100BB8005A81704700480040D81400205420002073
:100BC800074B59891A8992B28A4206D001221A73B0
:100BD8005A89013292B25A81704700221A737047BB
:100BE800D8140020F0B40D4A0D4F00F10A05302644
:100BF800914205F8016D08D3312400E01C46891A9A
:100C0800631C9142DBB2F9D22C70A7FB0232A842D6
:100C18004FEAD202ECD1F0BC704700BF00CA9A3B41
:100C2800CDCCCCCC70B400F10A06002416F8013DF6
:100C3800302BE5B21FD00C8813550B886C1C013380
:100C4800E4B29BB20A2C0B8011D0C5F10805061B33
:100C5800EDB2751BC4F109040835044414F8010900
:100C6800D0540B8801339BB2A5420B80F6D10021EA
:100C7800D15470BC7047092C01D00134D6E70888DC
:100C880013540B8801339BB20B80F0E72DE9F04F2A
:100C980087B00023102817461370ADF80A3000F00B
:100CA8004A8120D9B0F5007F4BD07AD9B0F5806F52
:100CB80061D0B0F5006F13D10B6802F108041B0F67
:100CC800092BD8B200F130038ABF37301370107087
:100CD8000B6801321B0194420B60F0D100233B7278
:100CE80007B0BDE8F08F022800F00E8117D904285C
:100CF80040F01E810B6802F1200030243125002BC2
:100D0800B4BF157014700B6801325B0090420B6021
:100D1800F5D1002387F8203007B0BDE8F08F01280F
:100D2800DED10B6802F10800302531241E064CBFC5
:100D3800147015700B6801325B0090420B60F5D19E
:100D4800CCE70B68C3F30313092B8CBF373330335D
:100D580013700B681A0103F00F03092B94BF30338B
:100D680037330A607B700B6800221B010B60BA7076
:100D780007B0BDE8F08F0B68141DC3F30333092BCC
:100D880003F130008ABF3733107013700B680132DB
:100D98001B01A2420B60F0D100233B7107B0BDE8F4
:100DA800F08F202800F0C780B0F5807F98D191EDB2
:100DB800007AB5EEC07AF1EE10FA06D52D2201239D
:100DC800B1EE477A3A70ADF80A30F7EE007AB4EE31
:100DD800E77AF1EE10FA00F1D68040F3EA800024B9
:100DE800B2EE046A00E01C4667EE867A631CB4EE35
:100DF800E77AF1EE10FA9BB2F5DCC7EE866A4FF09F
:100E0800200B0DF116086E48DFF8BCC143460DF102
:100E18000C093026C7EE267A9FED6A7AFCEEE76A5F
:100E280016EE901AF8EE666A77EEE67A67EE877A3B
:100E3800FCEEE77A17EE905A884203F8016D06D85F
:100E48003022091A01328142D2B2FAD21A70ACFBAE
:100E5800002099454FEAD000EED10DF10A0A51461B
:100E68003A4648460193FFF7DDFE5549DFF858E159
:100E7800019B46464FF0300CA94206F801CD08D830
:100E8800312000E010466D1A421C8D42D2B2F9D2D0
:100E98003070AEFB01219E424FEAD101ECD12E23E6
:100EA8003A46514648468DF80F30FFF7BBFEBDF86D
:100EB8000A20531C65219BB2BBF12D0FB954ADF824
:100EC8000A3004D1023207F803B0ADF80A203C4AD0
:100ED8003D483021A24208F8011D07D83023A41A42
:100EE80001339442DBB2FAD288F80030A0FB023218
:100EF80046454FEAD202EDD13A4651464846FFF7F9
:100F080091FE07B0BDE8F08F0B6802F110003025A4
:100F180031241B044CBF147015700B6801325B0040
:100F280090420B60F5D100233B7407B0BDE8F08F09
:100F380008287FF4D5AE0A68002A07DA2D233B700B
:100F48000A68012352420A60ADF80A301C491E4E55
:100F58000DF10C090DF116043025914204F8015DDC
:100F680008D8312000E01846521A431C8A42DBB2E6
:100F7800F9D22070A6FB0131A1454FEAD101ECD18D
:100F88000DF10A0AB8E7DFED116AB4EEE67AF1EE80
:100F980010FA13D5F0EE667A012466EEA76A0134DA
:100FA800B4EEE67AF1EE10FAA4B2F6D44FF02D0BB7
:100FB80027E74FF6FF74DFED056A20E70124F5E720
:100FC80000CA9A3B00007A44CDCCCCCCCDCCCC3DE9
:100FD8001749184A0B6C43F0400330B40B6453258F
:100FE80084234FF47A741585D4621380938A43F06E
:100FF80001039382138843F00103138050B1138ACD
:10100800DB07FCD5138A23F001031B041B0C0138F2
:101018001382F4D10749064A0B8823F001031B0405
:101028001B0C0B80136C23F04003136430BC704717
:1010380000380240001800401749184A0B6C43F06A
:10104800400330B40B640025842354241585D462EE
:101058001380938A43F001039382138843F00103BA
:10106800138050B1138ADB07FCD5138A23F00103E0
:101078001B041B0C01381382F4D10849064A0B885B
:1010880023F001031B041B0C0B80136C23F040039B
:10109800136430BC704700BF00380240001800409D
:1010A80009490A4B0A6C30B442F008020A64532515
:1010B8004FF0FF34002284201D85DC62188030BC8C
:1010C8009A805A62704700BF00380240000C004006
:1010D800044B9A8A42F001029A821A8842F001026D
:1010E8001A807047000C0040044A506A138823F0A5
:1010F80001031B041B0C1380704700BF000C004049
:101108000D490A6C4FF0804342F0010230B484204C
:101118000A64532500224FF0FF341D85DC621880D5
:101128009A805A629A8A42F001029A821A8842F098
:1011380001021A8030BC7047003802404FF08043EB
:10114800586A70474FF080435B6A834205D308446E
:10115800984294BF002001207047C0431844884239
:101168002CBF00200120704708B50448FFF7E6F8B7
:101178000348BDE80840FFF7E1B800BFB41D000808
:10118800BC1D000830B5364D83B005240022214629
:101198000134009510462323E4B2FFF7D1F96B2CF4
:1011A800F4D1304C00942323002205210220FFF7BC
:1011B800C7F90094232300226A210220FFF7C0F90F
:1011C80000942323002205210320FFF7B9F9009496
:1011D800232300226A210320FFF7B2F90094232376
:1011E800002205210420FFF7ABF9009423230022F5
:1011F8006A210420FFF7A4F9052108460094232357
:101208000022FFF79DF90094232300226A2105207C
:10121800FFF796F9144B0093002223232121032082
:10122800FFF78EF9114B009300222323212104207C
:10123800FFF786F90E4B0093002223234A2104204E
:10124800FFF77EF905242146013400952323002267
:101258000620E4B2FFF774F96B2CF4D103B030BD6B
:10126800C41D0008C81D0008CC1D0008FC1D00088E
:10127800081E000870B5284E82B005460524214690
:10128800013400962B4600220820E4B2FFF758F9F3
:101298006B2CF4D1214C00942B4600220521092007
:1012A800FFF74EF900942B4600226A210920FFF728
:1012B80047F900942B46002205210A20FFF740F940
:1012C80000942B4600226A210A20FFF739F900947E
:1012D8002B46002205210B20FFF732F900942B46FC
:1012E80000226A210B20FFF72BF90D4B00930022F7
:1012F8002B4632210A20FFF723F905242146013421
:1013080000962B4600220C20E4B2FFF719F96B2C4B
:10131800F4D102B070BD00BFC41D0008C81D00088C
:10132800101E000830B5274D83B005240023214640
:10133800013400951A460D20E4B2FFF701F96B2C31
:10134800F4D1214C009400231A4605210E20FFF702
:10135800F7F800231A4600946A210E20FFF7F0F8E8
:1013680000231A46009405210F20FFF7E9F800230F
:101378001A4600946A210F20FFF7E2F800231A4664
:10138800009405211020FFF7DBF800231A4600948B
:101398006A211020FFF7D4F80C4B009300231A465B
:1013A80035210F20FFF7CCF805240023214601340E
:1013B80000951A461120E4B2FFF7C2F86B2CF4D15D
:1013C80003B030BDC41D0008C81D0008201E000859
:1013D80030B5364D83B005240023214601340095ED
:1013E8001A461320E4B2FFF7ABF86B2CF4D1304C5B
:1013F800009400231A4605211420FFF7A1F80023C2
:101408001A4600943C211420FFF79AF800231A4644
:1014180000946A211420FFF793F800231A460094D9
:1014280005211520FFF78CF800231A4600943C216B
:101438001520FFF785F800231A4600946A21152025
:10144800FFF77EF800231A46009405211620FFF7BF
:1014580077F800231A4600943C211620FFF770F80D
:1014680000231A4600946A211620FFF769F8114BE9
:10147800009300231A4617211520FFF761F80E4B39
:10148800009300231A464B211520FFF759F805242D
:1014980000232146013400951A461720E4B2FFF7CD
:1014A8004FF86B2CF4D103B030BD00BFC41D000849
:1014B800C81D0008281E0008381E000830B52F4D2A
:1014C80083B005242146013400951F2300221920EA
:1014D800E4B2FFF735F8232CF4D11F2300220521AD
:1014E8001A200095FFF72CF81F23002222211A202A
:1014F8000095FFF725F81F23002205211B200095E2
:10150800FFF71EF81F23002222211B200095FFF75A
:1015180017F81F23002205211C200095FFF710F85B
:101528001F23002222211C200095FFF709F8144BE5
:1015380000930022222307211A20FFF701F8114BFC
:1015480000930022222310211B20FEF7F9FF0E4BE7
:1015580000930022222310211C20FEF7F1FF05240E
:101568002146013400951F2300221D20E4B2FEF716
:10157800E7FF232CF4D103B030BD00BF481E00089C
:101588004C1E0008581E00086C1E000808B50948C3
:10159800FEF7D4FE0848FEF7D1FEFFF7F3FD1F2043
:1015A800FFF768FEFFF7BEFEFFF712FFBDE8084031
:1015B800FFF784BFB41D0008BC1D000830B599B002
:1015C8000C4668460021602200F050FA22251723B5
:1015D8000121472001FA03F212F47F0F14BF4DF8DE
:1015E80023004DF8235013F1FF33F3D204F66811AA
:1015F80004F1C8051722002A02F1FF30AABF1346DA
:10160800172342B218A800EB8303B8BF162253F879
:10161800603C41F8043D8D42EDD1231F2222C434A1
:1016280043F8042FA342FBD119B030BD1249134A25
:10163800086B134B40F0010070B40863486C114C00
:1016480040F480704864116841F00C011160D16861
:1016580021F00C01D1604FF40066002001254FF401
:1016680000714FF440325E60D860D8625D63996063
:10167800626070BC704700BF003802400000024042
:101688000020014000230140094B9A6842F0010202
:101698009A609A6842F080429A601A689207FCD56C
:1016A800D86C9A6822F0010280B29A60704700BF35
:1016B800002001404C4A4D484D494E4B70B5146CC2
:1016C8004D4E4E4D44F002041464848944F48074F1
:1016D8008481848A44F001048482048844F00104EB
:1016E8000480106B40F008001063086840F02A403E
:1016F800086048684860486A40F0085040F408109C
:101708004862116C41F004011164002469211C85B0
:10171800D9626421596356219C63D96346211964AF
:10172800998941F480719981198B41F06801198375
:10173800198B41F4D0411983998B41F06801998341
:10174800998B41F4D0419983198C314019841888B8
:101758002B4940F084001880988A40F00100988254
:10176800188C40F4885040F011001884188840F014
:1017780001001880136B43F4001313632C600B688B
:1017880013F00103FBD11F4A1F4C1360214653601D
:101798000A20FFF713FF194B1C4A9A6040F25A229D
:1017A800DC605A601A6842F080621A601A6842F473
:1017B80040321A601A6842F480621A601A6842F469
:1017C80080721A601A6842F400621A601A6842F459
:1017D80000521A601A6842F040021A601A6842F011
:1017E80001021A6070BD00BF0038024000040040CA
:1017F800000C024000080040DDDDFFFF5860024099
:101808004060024000600240E814002038080040B0
:10181800B01E000800000020BC040020BC0400200A
:1018280078220020384B39481A68002142F001021A
:101838001A6099601A6822F0847222F480321A6061
:1018480058601A6882B022F480221A60D960009128
:1018580001911A6842F480321A601A4603E0009B2C
:10186800B3F5A06F09D0136803F400330193009B0C
:1018780001330093019B002BF1D0234B1B6813F419
:10188800003318BF01230193019B012B0BD0204B80
:10189800D3F888204FF0006142F47002C3F8882022
:1018A800996002B07047184B1A491A6C1A4842F0EE
:1018B80080521A640A6842F480420A609A689A6000
:1018C8009A6842F400429A609A6842F4A0529A6078
:1018D80058601A6842F080721A601A689201FCD542
:1018E8000E49094A40F205600860996821F0030131
:1018F8009960996841F002019960936803F00C03BC
:10190800082BFAD1C3E700BF00380240103000248A
:1019180000ED00E00070004008544007003C024021
:10192800154A936803F00C03042B23D0082B09D025
:10193800124B114A12499268C2F303128A5CD340CF
:101948000B6170475068516852684302C2F38812AD
:1019580001F03F014CBF0B4B084BB3FBF1F303FB0A
:1019680002F3054A5268C2F3014201325200B3FB46
:10197800F2F3DEE7034BDCE7003802400024F40012
:101988007800002000127A0008B52D20FEF752FCDE
:1019980008494FF4806201F50060FFF78BFEFEF7FF
:1019A8007DFCFFF7F3FDFEF7B9FE6420FFF710FB9F
:1019B800F9E700BFD8040020002103E00B4B5B5877
:1019C800435004310A480B4B42189A42F6D30A4A4C
:1019D80002E0002342F8043B084B9A42F9D3FFF790
:1019E80021FF00F01FF8FFF7CFFF7047B01E000877
:1019F80000000020BC040020BC0400207822002045
:101A0800FEE7000008B50021044600F083F8044B07
:101A18001868C36B03B19847204600F03BFA00BF33
:101A28007C1E000870B50D4E0D4D761BB61006D005
:101A38000024013455F8043B9847A642F9D1094ED1
:101A4800094D761B00F01AFAB61006D000240134AE
:101A580055F8043B9847A642F9D170BDA41E00086A
:101A6800A41E0008AC1E0008A41E0008F0B48607D7
:101A780043D0541E002A3ED0CAB2034602E014F1F5
:101A8800FF3438D303F8012B9D07F8D1032C2BD949
:101A9800CDB245EA05250F2C45EA054516D9A4F12E
:101AA80010073F0903F1200606EB071603F11002A1
:101AB80042E9045542E902551032B242F8D104F025
:101AC8000F040137032C03EB07130DD91E462246DA
:101AD800043A032A46F8045BFAD8221F22F00302CC
:101AE8000432134404F003042CB1C9B21C4403F8B3
:101AF800011B9C42FBD1F0BC704714460346C5E766
:101B0800024B13B1024800F079B87047000000009A
:101B1800111C00082DE9F04F354B85B00F46039096
:101B2800186800F095F8334B1B68019303F5A4730C
:101B38000293B946019BD3F848613EB3DDF808A08B
:101B48004FF001087468651E0FD4013406EB840455
:101B58000027B9F1000F20D0D4F800314B451CD034
:101B6800013D6B1CA4F10404F3D1234B73B1D6E9F6
:101B78000032002A34D1002B32D03046CAF8003067
:101B8800AFF30080DAF80060002EDBD1184B18683C
:101B980005B0BDE8F04F00F063B873682268013BF8
:101BA800AB420CBF75602760002AD9D0D6F88811DF
:101BB800D6F804B008FA05F30B4208D190477368C9
:101BC8005B45B7D1DAF80030B342C9D0B2E7D6F8EE
:101BD8008C01D4F88010034207D103989047EEE7B0
:101BE800B2461E46002EADD1D0E708469047E6E73C
:101BF800B80400207C1E00080000000000230146F5
:101C08001A46184600F02EB838B50A4C0A4D641B1F
:101C1800A4100AD004F18043013B05EB8305013C85
:101C280055F804399847002CF9D1BDE8384000F040
:101C38002BB900BFB01E0008AC1E0008704700BFDB
:101C4800704700BF704700BF704700BF704700BFB4
:101C5800704700BF0120704701207047704700BFE0
:101C6800704700BF2DE9F8432B4D06462868984673
:101C78000F469146FFF7ECFF284B1C68D4F8483113
:101C8800002B3DD05A681F2A0DDC02F1010C16BB4F
:101C98000232C3F804C0286843F82270FFF7E0FF57
:101CA8000020BDE8F8831E4B7BB34FF4C870AFF338
:101CB8000080034648B3D4F848210021C0E9002138
:101CC8004FF0010CC4F848010A46C0F88811C0F862
:101CD8008C11002EDCD003EB82010124C1F888901E
:101CE800D3F8880194402043022EC3F88801C1F834
:101CF8000881CDD1D3F88C110C43C3F88C41C7E7C8
:101D080004F5A673C4F84831BCE72868FFF7A8FFB4
:101D18004FF0FF30C5E700BFB80400207C1E000864
:101D280000000000FEE700BF1B5B25643B256466DE
:101D38001B5B25646D1B5B25646D00001B5B3439E0
:101D48006D1B5B33396D00002020202020202020CF
:101D5800202000004F4646004F4E000043495243A2
:101D68004C45000055505F444F574E00424C494E79
:101D78004B000000534E414B4500000054494D456F
:101D880052000000434F554E54455200414E494DB4
:101D98004154494F4E53000052454400475245456F
:101DA8004E000000424C5545000000001B5B324AC3
:101DB8000D0000001B5B3B48000000002D000000E8
:101DC8007C0000004D696B726F70726F6365736F92
:101DD80072736B692073697374656D6920752074FB
:101DE800656C656B6F6D756E696B6163696A616D52
:101DF8006100000050726F6A656B6174000000003A
:101E0800323032320000000053455420434F4C4FCB
:101E180052203A20000000004D4F4445203A00006F
:101E2800414E494D4154494F4E53203A000000005D
:101E380054494D45522F434F554E544552203A0070
:101E48002A000000415554484F5253203A000000E0
:101E5800496E646972204B6172616265676F766969
:101E68006300000045726E6164204B6F76616365A4
:101E7800766963009000002000000000F8B500BFFC
:101E8800F8BC08BC9E467047F8B500BFF8BC08BC53
:041E98009E467047AB
:081E9C002CE3FF7F01000000B0
:081EA400091B0008AD01000854
:041EAC0089010008A0
:101EB0000000000001000000010002000100040019
:101EC0000100030001000100A01D0008A41D00087E
:101ED000AC1D00085C1D0008601D0008841D000882
:101EE0008C1D0008941D0008641D00086C1D00086E
:101EF000741D00087C1D00085C1D0008601D0008A2
:101F0000E703FD01EB006D00320017000B00050038
:101F1000020000000000020005000B001700320064
:101F20006D00EB00FD01E703000000000000000071
:101F30000102030406070809007A030A9000002042
:101F4000000000007C030020E40300204C0400207B
:101F50000000000000000000000000000000000081
:101F60000000000000000000000000000000000071
:101F70000000000000000000000000000000000061
:101F80000000000000000000000000000000000051
:101F90000000000000000000000000000000000041
:101FA0000000000000000000000000000000000031
:101FB0000000000000000000000000000000000021
:101FC0000000000000000000000000000000000011
:101FD0000000000000000000000000000000000001
:101FE00000000000000000000100000000000000F0
:101FF0000E33CDAB34126DE6ECDE05000B000000B5
:1020000000000000000000000000000000000000D0
:1020100000000000000000000000000000000000C0
:1020200000000000000000000000000000000000B0
:1020300000000000000000000000000000000000A0
:0C236000000000000000000054220020DB
:04000005080019C115
:00000001FF
